:040000008031202803
:100006000800803120007F08E500121D0D2882318E
:10001600AB2280318B1A0B1D1C2801302100A40253
:100026000030A53B25082404031D1B288F316127BA
:100036000B1120006508FF0009008031222840309E
:100046008400003085001D308B31D0238031A030F4
:1000560084000030850012308B31D02320008C3193
:10006600412C2000300E890C0339003A031D08008C
:100076007D28D7170830FD007D08CF00080086319F
:10008600BF2608008531CD2508005A302000D5004E
:100096000030D60057140130FD007D08D800D71770
:1000A60008008F31182708008131DD210800200063
:1000B60034085B3ED5000030D60057140130FD00F1
:1000C6007D08D800D7170800D7173208FD00340876
:1000D6005B3E860087017D08810008000230F20041
:1000E6000030F300F4010030F5000030F6008E31E8
:1000F6004F2608002000310884000D300402031842
:10010600080088310435003E820008000034D834E7
:10011600CE348E34AA341C340334553400346E3451
:100126000034693400347634003465340034723473
:10013600003473340034613400346C3400342034B9
:1001460000345434003461340034703400340934DB
:10015600023420340034013401340034E034FA34FB
:1001660009340434003400340034FF3400340034DD
:1001760000341234013400340234003400340034C4
:100186000834FF34FF34FC34FF34013400340134C6
:100196000234003401340A340334453400347234F2
:1001A60000346934003463340034043403340934CD
:1001B60004343D00181CF7282000520886008701E9
:1001C6000108803A031DF5284C08860087010108BE
:1001D600843A031DF5288C30F0005208860087010A
:1001E600700881003D001810DF30F000700890059F
:1001F600080008000800080008000029813182076D
:1002060003298C316F2C8B31EE2B8C311C2C8C31CD
:10021600962C8B31E62B20003008C03A03197E2934
:1002260087298B31D6238131200034358C3108243F
:100236008131200032088C31082481318B31D6235C
:10024600813103142000340D8C31082481318C3126
:1002560012248131F10071082000B8008B31F62399
:1002660081318B31DE2338302000D5000030D600B6
:100276000030D9000130D8008130F1007108D70074
:1002860008008B31D6238131200034358C31082487
:100296008131200032088C31082481318B31D623FC
:1002A600813103142000340D8C31082481318C31C6
:1002B60012248131F10071082000B8008B31FF2330
:1002C60081318C3112248131F10071082000B9008E
:1002D6008B31F62381318B31DE2338302000D50077
:1002E6000030D6000030D9000230D8008130F1004D
:1002F6007108D70008003108203A03191429023A78
:1003060003194429DC2908003008403A031D080077
:10031600CA293830F1007108C000C301C401093090
:10032600F1007108C500C21708003830F1007108E5
:10033600C0000030C4000130C3000730F10071086E
:10034600C500C21708003830F1007108C000C301AB
:10035600C4010530F1007108C500C2170800383025
:10036600F1007108C000C301C4010330F100710837
:10037600C500C21708003830F1007108C000C3017B
:10038600C4010130F1007108C500C2170800310828
:10039600213A03199829023A03198C29073A0319B5
:1003A600A629013A0319B229033A0319BE29DC2901
:1003B6000800080020003208013A031DF42930081D
:1003C6001F390038031DF429D7173108033A031DD6
:1003D600F2290130F70077082100A900F42921004D
:1003E600A90120003208031D080030081F39023A0F
:1003F600031D080034080F39003A031908003408B1
:100406000F39F70002307702031808004F08203A28
:10041600031D0800D717B41B1D2A34080F39A63E42
:10042600860087010108F7007708FC0034080F39B9
:10043600483E292A34080F394C3E860087010108B8
:10044600F7007708FC0034080F39463E860087011E
:100456000108F7007708FB00B41B372A7C08F70071
:1004660034080F39A63E3C2A7C08F70034080F39B9
:100476004C3E86008701770881003108033A031D48
:100486005D2A7C0886008701811F552AB41B4F2AE6
:1004960034080F39483E522A34080F39463E860042
:1004A600870181148430F7007C088600870177086D
:1004B60081040800FB18642A7C0886008701811FD6
:1004C6008B2AB41B6A2A34080F39483E6D2A340831
:1004D6000F39463E8600870181107B30F7007C0885
:1004E60086008701770881057C0886008701011749
:1004F6000530F2000030F3007C08F7007708F400BE
:100506000130F5000030F6008E314F268131962AF3
:100516007B30F7007C0886008701770881057C0818
:10052600860087010117200034080F39983EF7002E
:10053600F8010E30F83D7708F9007808FA00FE3029
:10054600F700790886007A08870077088105080091
:1005560020004F08013A031DBB2A3D008E1ABB2A14
:1005660090011214121602302000E2006208CF0039
:100576003D001019121DC82AFB302000E200620857
:100586003D0090058C31812482313D008E1CCE2A9F
:100596002000121108001018121CE02A84311424BD
:1005A60082312100121504302000E2006208CF00DB
:1005B600FE30E20062083D009005101A121EEC2A79
:1005C6008C31AB248231EF302000E20062083D001E
:1005D6009005101F0E2B121FFC2A7330F2000030FC
:1005E600F300F4010130F5000030F6008E314F269D
:1005F6008231BF302000E20062083D0090052000F5
:1006060050080319082B0130D002D008031D0E2B09
:100616008E318D2682313D00901A921E152B803127
:10062600DC2082313D009018921C272BFF30F2000F
:100636007F30F300F4010130F5000030F6008E3112
:100646004F2682313D009301043020004F020318EB
:100656002E2B121108003D00921D6C2B2000E40188
:10066600652B0F082000E2006208DC005C0CE2004B
:10067600E20C620C0F39E30063082100AF00F7308B
:100686002000E20062083D0090052100AF08031D2E
:10069600502B873129278231602B7230F2000030CF
:1006A600F3005C302000E2006208F4000030F50040
:1006B6000030F6008E314F26823101302000E200F4
:1006C6006208E4070430640203186C2B3D0090199D
:1006D600342B200012110800210012113D00930155
:1006E600900198010E302100B5009930B400B60192
:1006F6003608031D8E2B34088600350887008101D5
:100706000130B4070030B53D0130B2003208B607FB
:10071600360803197E2B14303D0091009F30970058
:100726007B3092002100B701043037020318B42B46
:100736003708B2000130B235FF3E031D9E2B32351D
:10074600203E860087010030C03F0030C13FC23FD7
:10075600C33F0130B2003208B70704303702031C2A
:100766009B2B3D000E1796010E120E133D00901D99
:10077600C82BF7302100B20032083D00900520005A
:10078600D701C201C301C401B92B01302100B20057
:100796003208AD000130B2003208AE00AB01AC0148
:1007A600AA01B701023037020318F52B37084C3E71
:1007B6008600870181013708A63E860087018101F0
:1007C6003708463E8600870181013708483E860085
:1007D600870181010130B2003208B70702303702C3
:1007E600031CD92B2430B20032082000CC0016306E
:1007F6003D00980030302100B2000030B3003208CE
:100806002000A200210033082000A3000830A10028
:1008160084302100B20032082000A000DA01CF01A6
:100826000800210012113D009301900198010E303D
:10083600F3009930F200F4017408031D322C72089B
:1008460086007308870081010130F2070030F33D0E
:100856000130F0007008F40774080319222C1430D4
:100866003D0091009F3097007B309200F5010430E7
:100876007502031C402C2100592C7508F00001302C
:10088600F035FF3E031D432C7035203E8600870160
:100896000030C03F0030C13FC23FC33F0130F000CF
:1008A6007008F50704307502031C402C3D000E1736
:1008B60096010E120E133D00901D6B2CF730F000C2
:1008C600700890052000D701C201C301C4015E2C47
:1008D6000130F00070082100AD000130F000700812
:1008E600AE00AB01AC01AA01F50102307502031896
:1008F600982C75084C3E8600870181017508A63E36
:100906008600870181017508463E860087018101C0
:100916007508483E8600870181010130F0007008A5
:10092600F50702307502031C7C2C2430F000700899
:100936002000CC0016303D0098003030F00000302A
:10094600F10070082000A2007108A3000830A10081
:100956008430F0007008A000DA01CF010800200002
:10096600520886008701413FFD007D08F800F90125
:1009760079084402031DC12C780843020318C72CCA
:100986004308F8007808FD000330403E86008701E2
:100996007D08F800F901F809F909F80A0319F90AB6
:1009A600403F7807FA00413F793DFB007A08C300D3
:1009B6007B08C400FC017D087C020318F62C7C0829
:1009C600383E860087010108F80040088600870146
:1009D600780881000130F8007808C0070130F80077
:1009E6007808FC07DE2C0330403E8600870116009F
:1009F60001040319262D0830F800530A86008701E2
:100A0600780881003830F8000030F9005308023EBB
:100A1600860087017808C03F7908C13F52088600E2
:100A26008701011B1E2DC830F80053088600870178
:100A36007808810008008830F8005308860087018E
:100A46007808810008000830F800530A86008701FC
:100A5600780881003030F8000030F9005308023E73
:100A6600860087017808C03F7908C13F8430F800C6
:100A76005308860087017808810045080319482D28
:100A8600450881310121843120002000C213CE089F
:100A9600031D08008E318D2608000830F00070080E
:100AA600F4000030200059020830031958020318D8
:100AB6006D2D5808F0007008F400D408031D652D4C
:100AC60001306A2D5408013A031D6D2D0230F000E5
:100AD6007008D4000330553E860087017408F00084
:100AE600F101F009F109F00A0319F10A403F700714
:100AF600F200413F713DF3007208D8007308D90037
:100B06007408F0004C0A86008701700881003830AE
:100B1600F00070082100B1002000571CAC2DC92D33
:100B2600200055088400560885000008F0002100C2
:100B36003108860087017008810001302000D50742
:100B46000030D63D0130F00070082100B1070130B9
:100B5600F402F40803190800932D200055088400B8
:100B6600560885000008F00021003108860087013C
:100B76007008810001302000D5070030D63D0130D5
:100B8600F00070082100B1070130F402F4080319DF
:100B96000800B02D2000D7170E30F9009930F80064
:100BA600FA017A08031DE72D780886007908870080
:100BB60081010130F8070030F93D0130F700770870
:100BC600FA077A080319D72D0030F0000030F1003B
:100BD6001030F2000030F30020308C31DF248531F4
:100BE6003D000E17FB0102307B0203180C2E7B081A
:100BF600463E8600870181017B08483E86008701C4
:100C060081010130F7007708FB0702307B02031CE5
:100C1600FA2D0030F0000030F1000130F200003013
:100C2600F3005B308C31DF2485313D000E13243018
:100C3600F70077082000CC002030F7007708D200B4
:100C46005208F7007708D3003208F7007708DA0071
:100C5600DA08031D332E1030F7007708CF0008009E
:100C66000130F2000030F3005A30F7007708F40044
:100C76000130F5000030F6008E314F262030F700A7
:100C860077082000CF0008003D000E122000D71B79
:100C96007F2EC21F5C2E0230F7007708D10021009C
:100CA600AC08031D582E8E31CF262100AE01AD01B2
:100CB60008000830F7002000530A860087017708ED
:100CC60081003030F7000030F8005308023E8600FD
:100CD60087017708C03F7808C13F8C30F70053087A
:100CE60086008701770881008430F7004C0886006B
:100CF6008701770881000800B01F962E0130F700A3
:100D06007708D1002100AB08031D8C2E8E31CF262B
:100D160086312100AE01AD012000CE08031D08007A
:100D26008E318D2608000230F70077082000D100AA
:100D36000830F700530A86008701770881003030B3
:100D4600F7000030F8005308023E86008701770856
:100D5600C03F7808C13F8430F700530886008701FA
:100D6600770881002100AE01AD012000CE08031DE9
:100D760008008E318D26080020003008803A031DB9
:100D86000800C030F0007008D7001D2FBC30D50019
:100D96008030D6000030D9001230D80008008D30DF
:100DA600840080308500320884070318850A003FD6
:100DB600D5008030D6005608F1005508F000023004
:100DC6007007840071080318710A85000008F20094
:100DD6007208D8005608F1005508F0000330700775
:100DE600840071080318710A85000008F200720871
:100DF600D9000800033032020318192F8A30840004
:100E060080308500320884070318850A003FD50024
:100E16008030D60055088400560885000008F0008A
:100E2600F1017008D8007108D9000800D701080040
:100E3600D70108003308013A0319C92E033A0319EA
:100E4600D22E013A0319FD2E1B2F08002D3020004B
:100E5600DF005F08D0005C08FD39031D832F5C3678
:100E66003F39DF000130DF35FF3E031D362F5F358A
:100E7600203EE0006008D2005208DF005F08D30081
:100E8600520886008701010C890C0F390D3A031DA3
:100E9600802FE101083061020318712F5208023ECB
:100EA600860087010108860087010108DF006108C6
:100EB600303E860087015F0881005208023E8600A8
:100EC60087010130810741310318810A0130DF00B3
:100ED6005F08E10708306102031C512F3030DF0044
:100EE6000030E0005208023E860087015F08C03FDE
:100EF6006008C13F8D31A92508008D317C25080089
:100F0600FD3020005C05DF005F08043A031D080081
:100F160087318E27080020004C08860087010030A4
:100F2600011B0130FA004F08083A031DA72F3208AB
:100F36003D00960016080319A22F1030A32F043087
:100F4600F80078082000CF005108013A031DDA2F77
:100F56003830F8000030F9004C08023E8600870160
:100F66007808C03F7908C13F853150258731200078
:100F76005408023A031DC72F8430F8004C08860037
:100F86008701780881000800FA08031DD22FC830AF
:100F9600F8004C0886008701780881000800883030
:100FA600F8004C0886008701780881000800C21FF7
:100FB600E52F45080319E32F45088131012120005B
:100FC6002000C213D1010800F001F10107307102BF
:100FD600D03003197002031CF22F210008000130E3
:100FE600F0070030F13D07307102D030031970026E
:100FF600031CF22F2100080008008031542880319C
:1010060057288031882880315728803188288031B8
:101016003C2880314228803171288031482880312F
:0E102600452880315A2880316728803188287B
:1017A000640080010131890BD12B0034200091119C
:1017B00024001614200091190800DA2B2000911142
:1017C00024001615200091190800E22B2000320891
:1017D0002200031D8E1503198E1108002000330806
:1017E000CB01CB073208CA01CA07080020009111BB
:1017F000240096161616200091190800FB2B2000D5
:101800009111240096121616200091190800042C3C
:10181000F00020009111700824009100200091191F
:1018200008000E2C20009111240096152000911D17
:10183000162C24001108080020003308F501F507D4
:101840003208F401F4078D31DF2508002100B201D0
:101850000A3032020318080001302000E600660852
:101860002100B207282C21000E148E1423008E01B3
:1018700024001508F0390838950095161D3092009F
:1018800008008D3126258C318C31C3248C316400C5
:1018900020000E19472C8F31AD278C31472C2100A9
:1018A000B201B30107303302D030031932020318FA
:1018B00008000130B2070030B33D522CF1010A306C
:1018C0007102031C652C210008000130F000700833
:1018D000F1070A307102031C652C2100080020006A
:1018E00033083204031D762C8B12080033082100C4
:1018F000A501A507200032082100A401A4078B162A
:1019000008002100AA017430F2000030F300F40155
:101910000030F5000030F6008E314F263D008E106D
:101920001211FB30F7007708900508008B31D623A1
:101930008C31200034358C3108248C312000320861
:101940008C3108248C31200038088C3108248C31EB
:101950008B31DE2308003D001215EF30F7007708C9
:1019600090058E140130F70077082100AA00753029
:10197000F2000030F300F4010030F5000030F60012
:101980008E314F2608002000CF08031D08003D00BF
:101990008E019201143091009F3097007B309200AD
:1019A000210012150B178B173D008E19D92C8E159F
:1019B000D42C01302000E6006608CF000800F500B6
:1019C0007508F4007408F6000130F2020030F33BB1
:1019D000FF307306031DEE2CFF307206031908005A
:1019E0007008F400760886008701740881000130D1
:1019F000F4007408F607E42C22000E12F201F30141
:101A00000030730210300319720203181C2D8C3140
:101A10005E248C3122008C168C315E248C312200A5
:101A20008C120130F2070030F33D003073021030A9
:101A300003197202031C072D8C315E248C312200A5
:101A40000C168C315E2422000C1208007C30210020
:101A500099001917903027009B008C3133248D3169
:101A600022008E1121008E1122000E1221000E1272
:101A700022000C1221000C1222008C1221008C1268
:101A80008D3150258D3122008E1221008E1295123B
:101A900095111508F8390438950083316F23080033
:101AA00022000E122100B301B401003034021030C4
:101AB000031933020318722D8C3126248D31220034
:101AC0008C168C3126248D3122008C12013021009D
:101AD000B3070030B43D0030340210300319330234
:101AE000031C5C2D8C3126248D3122000C168C3188
:101AF000262422000C12080020005108023A031D7F
:101B0000842D8431B22408002000D1012100A808CE
:101B1000031DA62D08302000DD00530A8600870132
:101B20005D0881003030DD000030DE005308023EE9
:101B3000860087015D08C03F5E08C13F8C30DD0034
:101B40005308860087015D08810008002100A80174
:101B500008002000D401CE012100AB01AC01A80196
:101B60002000D1017F30DD004C08860087015D0830
:101B700081057F30DD004C08860087015D08810506
:101B80007F30DD005308860087015D088105D7019D
:101B9000D801D901C201C301C401803134208D3183
:101BA0000330F2000030F300F4010030F5000030A3
:101BB000F6008E314F268D31863147260800F70119
:101BC000103077020318052E74080139F600F60E5E
:101BD00022000E087606EF3976068E008C315E24E0
:101BE0008D3122008C168C315E248D3122008C12B6
:101BF0000130F536F40C890BF92D0130F60076082A
:101C0000F70710307702031CE42D8C315E248D31F0
:101C100022000C168C315E248D3122000C1287318B
:101C2000E7278D318C31FC2408002100B8011030E9
:101C3000380203183F2E35080139B700B70E2200CD
:101C40000E0821003706EF39370622008E008C314E
:101C500026248E3122008C168C3126248E312200CF
:101C60008C1201302100B636B50C890B332E0130B1
:101C7000B7003708B80710303802031C1B2E8C3110
:101C800026248E3122000C168C3126248E3122001F
:101C90000C128C314F248E318D3150250800652E69
:101CA0008031FE2008008031032008008031FF20B1
:101CB00008008731FF2708008031FC2008008131AF
:101CC0000E2108008031FD2008007308003A031936
:101CD0006D2E7F3A0319872E8C2E7208013A031954
:101CE000592E033A03195C2E013A03195F2E063A66
:101CF00003198C2E773A03198C2E013A0319502EB2
:101D0000073A0319562E013A0319532E8C2E7208E6
:101D1000FF3A0319622E8C2E08002100AD08031D26
:101D200008000130F0007008AD00AE08031D080087
:101D30000130F0007008AE0020005108023A031D87
:101D4000AD2E4C0A860087018101C830F0004C0896
:101D5000860087017008810008005108013A031DC0
:101D600008002100A8010830F0002000530A860076
:101D70008701700881003030F0000030F100530816
:101D8000023E860087017008C03F7108C13F803065
:101D9000F0005308860087017008810008002100C8
:101DA000AB01AC0120005108023A031DF22E0830AD
:101DB000F500530A86008701750881003830F50068
:101DC0000030F6005308023E860087017508C03FC8
:101DD0007608C13FC830F5005308860087017508B2
:101DE0008100080059083702031DF82E58083602F2
:101DF0000318002F3708D901D9073608D801D807AA
:101E0000853150258E313830F5000030F600200045
:101E10004C08023E860087017508C03F7608C13F26
:101E2000C830F5004C08860087017508810008005D
:101E30002000B8010030B900482FD717381421000E
:101E40002908013A031D542F2000B814542FD71726
:101E5000542FD717B41B302F34080F39A63E332F19
:101E600034080F394C3E860087010108F0007008E5
:101E7000F100710886008701811F542F71088600C8
:101E80008701011D542F0130F0007008B800542F55
:101E900030081F39003A03191D2F013A0319272F63
:101EA000033A0319292F542F2000D71F0800383078
:101EB000D5000030D60057140230F0007008D8006A
:101EC000080020004B084A0403196F2F4B08F50146
:101ED000F5074A08F401F4078D31DF258F318B13A4
:101EE000F801F9017908803AFF00A7307F02031D4D
:101EF0007B2F1030780203188C2F0130F807003048
:101F0000F93D7908803AFF00A7307F02031D8A2F30
:101F100010307802031C7D2F22008E11F801F90188
:101F20007908803AFF00A7307F02031D992F1030F7
:101F300078020318AA2F0130F8070030F93D79081C
:101F4000803AFF00A7307F02031DA82F10307802CF
:101F5000031C9B2F22008E15702F20004B084A0473
:101F60000319BE2F4B082100B601B60720004A080E
:101F70002100B501B5078E3115268F318B13210055
:101F8000B901BA013A08803AFF00A7307F02031D69
:101F9000CB2F103039020318DD2F01302100B90793
:101FA0000030BA3D3A08803AFF00A7307F02031D97
:101FB000DB2F10303902031CCD2F22008E1121009F
:101FC000B901BA013A08803AFF00A7307F02031D29
:101FD000EB2F103039020318FD2F01302100B90713
:101FE0000030BA3D3A08803AFF00A7307F02031D57
:101FF000FB2F10303902031CED2F22008E15BF2F4E
:020000040001F9
:04000E00DCCFEFD97B
:00000001FF
